:020000040800F2
:10000000F86001244D03000811390008F733000897
:1000100065291008930D0008273010080000000023
:10002000000000000000000000000000A73D0008E4
:100030004D0D100800000000BB291008A93D000864
:1000400067030008670300086703000867030008E8
:1000500067030008670300086703000867030008D8
:10006000670300086703000867030008AD0C100869
:10007000B90C10086703000867030008670300084D
:1000800067030008670300086703000867030008A8
:100090006703000867030008670300086703000898
:1000A0006703000867030008670300086703000888
:1000B0006703000867030008670300086703000878
:1000C0006703000867030008670300086703000868
:1000D0003D3D0008A54500086703000867030008C8
:1000E00067030008670300080000000067030008BA
:1000F0006703000867030008670300086703000838
:100100006703000867030008670300086703000827
:100110006703000867030008670300086703000817
:100120006703000867030008670300086703000807
:1001300067030008670300086703000867030008F7
:1001400000000000000000000000000000000000AF
:1001500067030008670300086703000867030008D7
:1001600067030008670300086703000867030008C7
:100170006703000867030008BD0B100800000000BB
:1001800067030008670300086703000867030008A7
:100190006703000867030008670300086703000897
:1001A0006703000867030008670300086703000887
:1001B0006703000867030008670300086703000877
:1001C0006703000867030008670300086703000867
:1001D0006703000867030008191000086703000898
:1001E0006703000867030008670300086703000847
:1001F0006703000867030008670300086703000837
:100200006703000867030008670300086703000826
:100210006703000867030008670300086703000816
:100220006703000867030008670300080000000078
:100230006703000867030008000000006703000868
:1002400067030008670300086703000867030008E6
:1002500067030008670300086703000867030008D6
:1002600067030008670300086703000867030008C6
:100270006703000867030008670300080000000028
:100280006703000867030008670300080000000018
:10029000000000006703000800F002F8FFF0C6FE4F
:1002A0000AA090E8000C82448344AAF10107DA45D1
:1002B00001D1FFF0BBFEAFF2090EBAE80F0013F058
:1002C000010F18BFFB1A43F0010318473C9E0000C2
:1002D0005C9E00000A444FF0000C10F8013B13F044
:1002E000070408BF10F8014B1D1108BF10F8015B8F
:1002F000641E05D010F8016B641E01F8016BF9D182
:1003000013F0080F1EBF10F8014BAD1C0C1B09D1D8
:100310006D1E58BF01F801CBFAD505E014F8016B4A
:1003200001F8016B6D1EF9D59142D6D370470000DC
:100330000023002400250026103A28BF78C1FBD8EE
:10034000520728BF30C148BF0B607047094880473B
:1003500009480047FEE7FEE7FEE7FEE7FEE7FEE7A7
:10036000FEE7FEE7FEE7FEE704480549054A064BBF
:1003700070470000152C100899020008F858012455
:10038000F8600124F85C0124F85C01240FB40449EE
:1003900010B503AA029800F0C9F910BC5DF814FB6F
:1003A000180000242DE9F041064600241068752944
:1003B000314616A510D0AFF30080002802DA404283
:1003C00013A507E031688A0701D512A502E04907A5
:1003D00004D511A5012401E0AFF3008000210A2219
:1003E00006F1240709E0B0FBF2FCB0FBF2F302FBDC
:1003F0001C00303078541846491C0028F3D123469D
:100400002A463046BDE8F04100F036B90000000051
:100410002D0000002B000000200000002DE9F04717
:100420004FF0000A89460446C0F820A02046E16843
:100430008847002876D0252806D0D4E901219047A6
:10044000206A401C2062F1E7E168204600258847C9
:10045000C4F81CA006460027C4F818A02A2E09D00C
:10046000304604F03AF938B304EB8708303EC8F858
:10047000186019E059F8041B204604EB87029161CB
:10048000E1688847012F064618D1E069002820DA84
:1004900025F020051DE0D8F8180000EB800006EBE1
:1004A00040003038C8F818002046E1688847064602
:1004B00004F013F90028EED1012F0AD02E2E08D116
:1004C0002046E16888477F1C0646022F45F020053C
:1004D000C4DBA069002803DA404245F00105A061B1
:1004E000E80701D025F01005B6B1A6F141001928A2
:1004F00002D8203645F400654A463146204625603C
:100500004D46FFF07DFD58B1012806D0ED1D25F0C8
:10051000070000F1080989E704E005F1040985E70F
:1005200030468AE7206ABDE8F08740EA010310B54B
:100530009B070FD1042A0DD310C808C9121F9C4273
:10054000F8D020BA19BA884201D9012010BD4FF065
:10055000FF3010BD1AB1D30703D0521C07E00020B2
:1005600010BD10F8013B11F8014B1B1B07D110F80F
:10057000013B11F8014B1B1B01D1921EF1D1184612
:1005800010BD032A40F2308010F0030C00F01580FB
:1005900011F8013BBCF1020F624498BF11F801CB86
:1005A00000F8013B38BF11F8013BA2F1040298BFEB
:1005B00000F801CB38BF00F8013B11F0030300F055
:1005C0002580083AC0F0088051F8043B083A51F8F9
:1005D00004CBA0E80810F5E7121D5CBF51F8043BFE
:1005E00040F8043BAFF30080D20724BF11F8013B71
:1005F00011F801CB48BF11F8012B24BF00F8013BD3
:1006000000F801CB48BF00F8012B704710B5203A25
:10061000C0F00B80B1E81850203AA0E81850B1E8BB
:100620001850A0E81850BFF4F5AF5FEA027C24BF71
:10063000B1E81850A0E8185044BF18C918C0BDE868
:1006400010405FEA827C24BF51F8043B40F8043B31
:1006500008BF7047D20728BF31F8023B48BF11F8E6
:10066000012B28BF20F8023B48BF00F8012B704740
:1006700070477047704770472DE9F0470D4699461F
:100680009246044600F124080168880604D5E06912
:1006900021F01001216000E00120A84201DD471B8C
:1006A00000E00027A1697A1902EB0900081AA0618D
:1006B0002078C00602D42046AFF30080002608E070
:1006C000D4E901211AF806009047206A401C761CE4
:1006D00020624E45F4DB2078C0060AD52046AFF3F1
:1006E000008006E0D4E9012130209047206A401CB8
:1006F0002062381EA7F10107F4DC07E0D4E90121EC
:1007000018F805009047206A401C2062281EA5F1B9
:100710000105F3DC2046AFF300802078000602D507
:100720000220BDE8F0870120FBE70000074B70B511
:100730000D467B4400F01DF804462846FFF0C4FF38
:1007400010B14FF0FF3070BD204670BD8F4C0000DF
:10075000004870479858012400487047B858012451
:10076000004870479858012401694A1C02610878C2
:10077000704700B58FB0CDE90131002105910549E1
:100780007944CDE9031011466846FFF747FE0FB0E4
:1007900000BD0000E5FFFFFF2DE9F047814616464A
:1007A0008AB0354878440DC88DE80D003248784449
:1007B000801C03AC0DC884E80D0041F69B30084452
:1007C000372190FBF1F290FBF1F5A5F1800501FBDB
:1007D00012041B3C02D56442012000E00020DFF837
:1007E00098A080460027FA44AAF1BE0A0EE0E0076E
:1007F0000AD03246684607EB470101230AEB810124
:10080000FFF0CEFF8DE8070064107F1C002CEED1B6
:10081000194F7F44AE3F19E0E80715D007EB0410ED
:100820000DF1180A90E80E008AE80E00C068F04248
:1008300001D1981908903246012306A903A8FFF0B8
:10084000AFFF03AB83E807006D10641C002DE3D1FC
:100850004FF0010332466946B8F1000F03A802D0F9
:10086000FFF089FF01E0FFF09BFFC9E90001C9F833
:1008700008200AB0BDE8F087FC9800007546FFF735
:1008800067FFAE4605006946534620F007008546DF
:1008900018B020B5FFF768FDBDE820404FF0000616
:1008A0004FF000074FF000084FF0000B21F0070158
:1008B000AC46ACE8C009ACE8C009ACE8C009ACE89B
:1008C000C0098D46704710B50446AFF3008020463E
:1008D000BDE81040FFF0B3BB130C06BF12044FF08D
:1008E000100C4FF0000C130E04BF12020CF1080C98
:1008F000130F04BF12010CF1040C930F04BF9200FC
:100900000CF1020CD30F04BF52000CF1010C114684
:100910004FF00002A0F11F00A0EB0C00704711F097
:10092000004F08BF704731F000413FF4D5AF0B0CCA
:1009300006BF09044FF0100C4FF0000C0B0E04BF63
:1009400009020CF1080C0B0F04BF09010CF1040C97
:100950008B0F04BF89000CF1020CCB0F04BF4900C0
:100960000CF1010CCCF12003A0EB0C0022FA03F3F4
:1009700002FA0CF241EA030100F10100704720F095
:100980007F4C80EA030023F07F47ACEB070303F5BD
:100990007C5300F0004003F1FF032DE980494FEA4A
:1009A000154B09B44FEA144325EA0B4E24EA0348D9
:1009B0000FF2042606EB132749083E785FEA32025D
:1009C00003FB0667C7F5000707FB06F64FEA543737
:1009D0004FEAD64606F1020607FB066CCCF1005C36
:1009E0004FEA1C472CEA074C07FB06F40CFB06F504
:1009F00004EB15464FEA961634BF00204FF0004036
:100A00004FEAD13706FB07FC4FEA1C4C0CFB0BF7F7
:100A1000D21B03FB0CF761EB07010CFB0EF7B0EBED
:100A2000074072EB17420CFB08F734BFA2EB0742FA
:100A3000B2EB074261EB17414FEA0C444FEA9107D2
:100A400006FB07FC4FEA1C4C0CFB0BF7B0EBC74056
:100A500072EB573203FB0CF734BFA2EBC742B2EB89
:100A6000C74261EB57310CFB0EF7B0EBC70072EBDE
:100A700057720CFB08F734BFA2EBC702B2EBC702F8
:100A800061EB5771039F4FEA816141EA921104EBD8
:100A9000CC044FEAD1374FEA826206FB07FC42EAF8
:100AA00090124FEA80604FEA1C4C0CFB0BF7D21BF4
:100AB00003FB0CF761EB07010CFB0EF7B0EB0740F3
:100AC00072EB17420CFB08F734BFA2EB0742B2EB04
:100AD000074261EB17414FEA8C554FEA910704EB4F
:100AE0009C2406FB07FC4FEA1C4C0CFB0BF7B0EBFD
:100AF000C74072EB573203FB0CF734BFA2EBC7427F
:100B0000B2EBC74261EB57310CFB0EF7B0EBC700FD
:100B100072EB57720CFB08F734BFA2EBC702B2EBC3
:100B2000C70261EB577115EB4C254FEA816141EA31
:100B300092114FEA82624FEAD13742EA901206FBE5
:100B400007FC44F100044FEA80604FEA1C4C0CFBA8
:100B50000BF7D21B03FB0CF761EB07010CFB0EF745
:100B6000B0EB074072EB17420CFB08F734BFA2EB67
:100B70000742B2EB074261EB174115EB1C154FEA38
:100B8000813141EA92414FEA823242EA90424FEA91
:100B900080304FEA0C7644F1000448EA03434EEA01
:100BA0000B484FF0000EB2EB080C71EB030724BFAB
:100BB000624639464EEB0E0E4FF0000B00185241C4
:100BC00049414BEB0B0BB2EB080C71EB03077BF1CC
:100BD000000B24BF624639464EEB0E0E4FF0000B61
:100BE0000018524149414BEB0B0BB2EB080C71EB77
:100BF00003077BF1000B24BF624639464EEB0E0E15
:100C000051EA020718BF46F0010616EB0E7655F1C1
:100C1000000254F1000103D5BDE88901BDE8008858
:100C2000BDE88901BDE80048B619524141EB010118
:100C3000A3F10103704780807F7E7D7C7B7A797889
:100C4000777676757473727171706F6E6E6D6C6C91
:100C50006B6A6A6968686766666564646363626133
:100C60006160605F5F5E5E5D5D5C5C5B5B5A5A59B4
:100C70005958585757565655555554545353525220
:100C80005251515050504F4F4F4E4E4D4D4D4C4C78
:100C90004C4B4B4B4A4A4A494949484848474747C1
:100CA00047464646454545444444444343434342FE
:100CB000424242414141002B9C4630D477002BD028
:100CC0001CB54FEA370703B44FF010004FF0100186
:100CD000BAF1000F06D0BCF1000FDCBF40F00800F5
:100CE00040F008014FF000000FBCBDE810400BF1D0
:100CF000010BBBF1010F08BF5FEA170722BF12F11A
:100D0000010211F101014FF0004143F1000300F035
:100D1000004043EA00007047F9D35708D0E746EA9D
:100D2000064613F1400F4FEA16461FDD13F1200F60
:100D3000DFBF16430A46002120335B42BED0C3F119
:100D4000200746EA064602FA07F74FEA164646EA41
:100D50000706C3F1200722FA03F201FA07F721FA86
:100D600003F14FF0000342EA0702A7E746EA020652
:100D700046EA06464FEA164646EA0106BCBF46EA80
:100D80000646360C4FF000034FF000024FF0000112
:100D900094E7FEE710B5806B816C496D022906D09F
:100DA000012180F83510C16C41F04001C16400F1AF
:100DB0003FF810BD2DE9FF4F6A4881B00E990068D9
:100DC000684A40F0010010601068674E00F00100B2
:100DD0000090A6F15000654D644C644A4835866425
:100DE0001834B063DFF88481DFF88091DFF87CA1EC
:100DF00008F16008DFF874B109F1780930680AF188
:100E0000900A0BF1A80B90422ED0A0422CD0574A4A
:100E10003032904228D0A84226D0404524D04845C0
:100E200022D0504520D058451ED0514A90421BD068
:100E30004F4A1832904217D04D4A3032904213D068
:100E40004B4A483290420FD0494A603290420BD010
:100E5000474A7832904207D0454A9032904203D0B8
:100E6000434AA832904203D1026822F0100202E005
:100E7000026822F002020260002734604B20C6E9BB
:100E800001074FF48050F760C6E904100011C6E96D
:100E9000063040023062042070620120C6E90A0771
:100EA0003148376300F188F92F4801F011FA86F8CC
:100EB000347030490298E8B3039800902A48DDE97D
:100EC000012300F153F82949306888422ED0A0420E
:100ED0002CD026493031884228D0A84226D040451F
:100EE00024D0484522D0504520D058451ED0204916
:100EF00088421BD01E491831884217D01C49303116
:100F0000884213D01A49483188420FD018496031BD
:100F100088420BD016497831884207D01449903165
:100F2000884203D01249A83188420CD1016841F0AF
:100F300010010BE0FFE7039B019A05B00A48BDE8EA
:100F4000F04F00F12BBA016841F00201016002226A
:100F50000C20114600F1ACFC05B00C20BDE8F04FB0
:100F600000F199BCD84402589CA100241000024012
:100F700010040240280002482348016821F00101C2
:100F800001600168C907FCD12048214900688842F6
:100F900034D01F491831884230D01D493031884241
:100FA0002CD01B494831884228D0194960318842E9
:100FB00024D017497831884220D015499031884291
:100FC0001CD01349A831884218D01249884215D044
:100FD00010491831884211D00E49303188420DD065
:100FE0000C494831884209D00A496031884205D00D
:100FF00008497831884201D006499031016821F0D2
:101000000101016070470000000002489CA100241B
:1010100010000240100402407047000010B52A4A38
:10102000016891423AD0284A1832914236D0264A75
:101030003032914232D0244A483291422ED0224A54
:10104000603291422AD0204A7832914226D01E4AFC
:101050009032914222D01C4AA83291421ED01B4AA3
:1010600091421BD0194A1832914217D0174A303298
:10107000914213D0154A483291420FD0134A603240
:1010800091420BD0114A7832914207D00F4A9032E8
:10109000914203D00D4AA832914211D1CAB20C4CF0
:1010A0001823103AB2FBF3F26FF3090102F00703C1
:1010B000032AE35CC36500D9091D8165084610BD9C
:1010C00021F0FF01F9E70000100002401004024087
:1010D0003E87000810B501680123224CCAB2A14224
:1010E0001BD0204C1434A14217D01E4C2834A142EE
:1010F00013D01C4C3C34A1420FD01A4C5034A142A6
:101100000BD0184C6434A14207D0164C7834A1425D
:1011100003D0144C8C34A1420FD11421083AB2FBF5
:10112000F1F1114A02EB810202660F4A01F01F0140
:1011300080328B40C0E9192310BD1824103AB2FB4D
:10114000F4F20A4C2144A82900D80832084901EBDE
:101150008201016606498031416602F01F018B4021
:10116000836610BD0854025800580258F0FBFDBFBA
:101170000008024010B50279531E072B30D8194CD5
:101180000168A1421BD0174C1434A14217D0154C52
:101190002834A14213D0134C3C34A1420FD0114C3F
:1011A0005034A1420BD00F4C6434A14207D00D4CF7
:1011B0007834A14203D00B4C8C34A14206D10A49A9
:1011C00001EB8201C1660849443105E0074901EBA2
:1011D0008201C16605494431016701219940416797
:1011E00010BD000008540258FC580258FC08024088
:1011F000014610B500208B694FF0C0748A6A53B164
:10120000B3F5005F15D072B1012A0CD0022A0AD0C2
:10121000032A09D104E01AB1012A06D0022A03D117
:10122000C96AC90100D5012010BDC96AA142FAD01E
:1012300010BD002AF7D0012AF2D0022AF3D0032AE7
:10124000F3D010BD30B5254D0468AC4238D0234DE5
:101250001835AC4234D0214D3035AC4230D01F4D22
:101260004835AC422CD01D4D6035AC4228D01B4DCA
:101270007835AC4224D0194D9035AC4220D0174D72
:10128000A835AC421CD0164DAC4219D0144D1835BF
:10129000AC4215D0124D3035AC4211D0104D48350E
:1012A000AC420DD00E4D6035AC4209D00C4D7835B6
:1012B000AC4205D00A4D9035AC4201D0084DA8355E
:1012C00063608368402B036803D099600068C26044
:1012D00030BD9A600068C16030BD0000100002405F
:1012E000100402402DE9F04F834E834FDFF808C20F
:1012F0004836DFF80492DFF800A20CF1180CDFF892
:10130000F8B109F13009DFF8F0E10AF1600A046888
:101310000BF1780B856D0EF1900EBC426DD06445DB
:101320006BD04C4569D0B44267D0544565D05C451C
:1013300063D0744561D0DFF8C08108F1A808444546
:101340005BD0DFF8B881444557D0DFF8B08108F1B1
:101350001808444551D0DFF8A48108F1300844450D
:101360004BD0DFF8988108F14808444545D0DFF8B4
:101370008C8108F1600844453FD0DFF8808108F196
:101380007808444539D0DFF8748108F19008444565
:1013900033D0DFF8688108F1A80844452DD0DFF884
:1013A0006081444529D0DFF8588108F1140844458C
:1013B00023D0DFF84C8108F1280844451DD0DFF820
:1013C000408108F13C08444517D0DFF8348108F12A
:1013D0005008444511D0DFF8288108F164084445DD
:1013E0000BD0DFF81C8108F17808444505D0DFF800
:1013F000108108F18C08444509D1D0E91948C4F896
:101400000480C46E1CB1D0E91C48C4F80480046890
:10141000BC422ED064452CD04C452AD0B44228D0B2
:10142000544526D05C4524D0744522D0324EA8368F
:10143000B4421ED0314EB4421BD0304E1836B442A6
:1014400017D02E4E3036B44213D02C4E4836B4420C
:101450000FD02A4E6036B4420BD0284E7836B442B4
:1014600007D0264E9036B44203D0244EA836B4425C
:1014700015D190F85C4004F01F063F24B440AC60E6
:101480000468256825F4802525602EE09A600068B0
:10149000C160BDE8F08F99600068C260F9E7184E3E
:1014A000B4421BD0164E1436B44217D0144E283610
:1014B000B44213D0124E3C36B4420FD0104E5036C8
:1014C000B4420BD00E4E6436B44207D00C4E783680
:1014D000B44203D00A4E8C36B442DAD190F85C4064
:1014E00004F01F060124B4406C60046863608368E4
:1014F000402B0368CFD1C9E710000240100402401E
:10150000085402587047000010B5FFF735FD03F08E
:1015100065FF03480068C16841F00101C16010BD6A
:101520004CA1002470470000324800B587B0016824
:1015300041F001010160006800F0010005902D48B4
:10154000001D016841F001010160016801F0010125
:101550000591016841F002010160016801F002019A
:101560000591016841F004010160016801F0040186
:101570000591016841F008010160016801F008016E
:101580000591016841F0100101600068694600F0B2
:101590001000059050200090022001900120029040
:1015A000032003900D200490134801F069F8802077
:1015B00000901248694601F063F8C020009010487E
:1015C000694601F05DF8082000900E48694601F078
:1015D00057F8732000900C48694601F051F8032237
:1015E00002214E2000F164F94E2000F154F907B0B9
:1015F00000BD0000DC4402580000025800040258FC
:1016000000080258000C0258001002582DE9F84F4B
:10161000044601F029F9009034B194F8350002280D
:1016200005D080206065EBE00120BDE8F88FCC4E4E
:10163000CB4FCB491836DFF828833037DFF82093BB
:10164000DFF81CA308F14808DFF814B309F16009BA
:1016500020680AF1780A0BF1900B88422ED0B04234
:101660002CD0B8422AD0404528D0484526D05045F5
:1016700024D0584522D0BA4AA83290421ED0B94A46
:1016800090421BD0B74A1832904217D0B54A303238
:10169000904213D0B34A483290420FD0B14A6032E0
:1016A00090420BD0AF4A7832904207D0AD4A903288
:1016B000904203D0AB4AA832904209D1026822F08E
:1016C0001E0202602068426922F08002426103E04B
:1016D000026822F00E02026025688D4228464DD035
:1016E000B0424BD0B84249D0404547D0484545D09C
:1016F000504543D0584541D0994AA83290423DD0F8
:10170000984A90423AD0974A1832904236D0954A39
:101710003032904232D0934A483290422ED0914A91
:10172000603290422AD08F4A7832904226D08D4A39
:101730009032904222D08B4AA83290421ED08A4AE0
:1017400090421BD0884A1432904217D0864A2832E1
:10175000904213D0844A3C3290420FD0824A503299
:1017600090420BD0804A6432904207D07E4A783251
:10177000904203D07C4A8C32954204D1206E02689C
:1017800022F48072026076492068884228D0B042F4
:1017900026D0B84224D0404522D0484520D05045DC
:1017A0001ED058451CD06E49A831884218D06D49CA
:1017B000884215D06B491831884211D069493031BF
:1017C00088420DD067494831884209D06549603167
:1017D000884205D063497831884201D0614990310F
:1017E000016821F0010101600EE001F03DF800996F
:1017F000401A052808D920206065032084F83500A8
:10180000002084F834000FE72868C007EDD1544A5F
:101810000121206890422ED0B0422CD0B8422AD06C
:10182000404528D0484526D0504524D0584522D0A0
:101830004B4BA83398421ED04A4B98421BD0494B81
:101840001833984217D0474B3033984213D0454B4A
:10185000483398420FD0434B603398420BD0414BF2
:101860007833984207D03F4B9033984203D03D4B9A
:10187000A833984208D194F85C30A06D03F01F059E
:101880003F23AB40836007E094F85C30A06D03F029
:101890001F0301FA03F34360206890424DD0B04229
:1018A0004BD0B84249D0404547D0484545D0504537
:1018B00043D0584541D02A4AA83290423DD0294AC7
:1018C00090423AD0274A1832904236D0254A3032D8
:1018D000904232D0234A483290422ED0214A603280
:1018E00090422AD01F4A7832904226D01D4A903228
:1018F000904222D01B4AA83290421ED01A4A9042EF
:101900001BD0194A1432904217D0174A28329042FD
:1019100013D0154A3C3290420FD0134A50329042B5
:101920000BD0114A6432904207D00F4A783290426D
:1019300003D00D4A8C3290420BD1D4E91902426097
:10194000E06E30B1026822F480720260D4E91C02B9
:10195000426084F83510002084F8340065E6000009
:101960001000024010040240085402582DE9F05FB4
:1019700028B190F83510022904D08021416501205A
:10198000BDE8F09F914A914B914D1832904E303303
:10199000DFF838C21835DFF834E24836DFF8309225
:1019A000DFF82CA20EF1600EDFF824B209F1300945
:1019B00001680AF1600A864C0BF1A80B614529D039
:1019C000914227D0994225D0804F4837B94221D043
:1019D00071451FD07D4F7837B9421BD07B4F903770
:1019E000B94217D0794FA837B94213D0A14211D0CC
:1019F000A9420FD049450DD0B1420BD0514509D075
:101A0000734F7837B94205D0714F9037B94201D042
:101A100059452FD1042780F83570614525D0914272
:101A200023D0994221D06948483081421DD0714568
:101A30001BD066487830814217D06448903081428C
:101A400013D06248A83081420FD0A1420DD0A942E4
:101A50000BD0494509D0B14207D0514505D05C486B
:101A60007830814201D05A489030086820F0010057
:101A70000860A8E0D1F8008028F00E08C1F80080C6
:101A80000168E04641452BD0914229D0994227D0A8
:101A9000DFF838C10CF1480C614521D071451FD0E9
:101AA000DFF828C10CF1780C614519D0DFF81CC1B2
:101AB0000CF1900C614513D0DFF810C10CF1A80CAB
:101AC00061450DD0A1420BD0A94209D0494507D0AC
:101AD000B14205D0514503D0DFF8F4C00CF1780CC9
:101AE000D1F800C02CF0010CC1F800C001684FF023
:101AF000010C414546D0914244D0994242D0334AEC
:101B0000483291423ED071453CD0304A78329142C1
:101B100038D02E4A9032914234D02C4AA832914289
:101B200030D0A1422ED0A9422CD049452AD0B14272
:101B300028D0514526D0264A7832914222D0B94247
:101B400020D059451ED0234A91421BD0214A14323D
:101B5000914217D01F4A2832914213D01D4A3C327D
:101B600091420FD01B4A503291420BD0194A643235
:101B7000914207D0174A7832914203D0154A8C32ED
:101B8000914218D1016E0A6822F480720A6090F8BE
:101B90005C20816D02F01F020CFA02F24A60D0E96B
:101BA00019124A60C16E31B10A6822F480720A606B
:101BB000D0E91C124A6080F835C0002180F834104A
:101BC000016D01B188470020DAE6000010000240F4
:101BD0001004024008540258406D70472DE9FC5F24
:101BE0000446002000904FF41651F9480068B0FBFD
:101BF000F1F00190A56D2E682A68F64FDFF8D483C6
:101C0000DFF8D0A3DFF8CCB308F1180820680AF198
:101C1000300ADFF8C4930BF1480BB84238D0414684
:101C2000884235D0504533D0584531D0E9496031EC
:101C300088422DD0E7497831884229D0E549903152
:101C4000884225D0E349A831884221D048451FD099
:101C5000E149183188421BD0DF493031884217D022
:101C6000DD494831884213D0DFF86CE30EF1600E95
:101C700070450DD0D84B7833984209D0DFF858C35F
:101C80000CF1900C604503D0D349A83188427DD136
:101C900094F85C10082301F01F0103FA01F23242AC
:101CA0004CD0B84233D0404531D050452FD0584564
:101CB0002DD0C8496031884229D0C6497831884240
:101CC00025D0C4499031884221D0C249A8318842E8
:101CD0001DD048451BD0C0491831884217D0BE4995
:101CE0003031884213D0BC49483188420FD0BA49BC
:101CF000603188420BD0B8497831884207D0B64964
:101D00009031884203D0B449A831884203D1016898
:101D100001F0040102E0016801F0080171B10168FD
:101D200021F00401016094F85C0000F01F0003FA48
:101D300000F2AA60606D40F00100606594F85C00FC
:101D4000012100F01F008140314241D02068B8429B
:101D500035D0404533D0504531D058452FD09D4ADD
:101D6000603290422BD09B4A7832904227D0994AD9
:101D70009032904223D0974AA83290421FD04845D3
:101D80001DD0954A1832904219D000E0B3E1924A32
:101D90003032904213D0904A483290420FD08E4A4F
:101DA000603290420BD08C4A7832904207D08A4AF7
:101DB0009032904203D0884AA83290427ED1406946
:101DC00010F0800F04D0A960606D40F002006065E3
:101DD00094F85C00042100F01F00814031423FD0A4
:101DE0002068B84233D0404531D050452FD05845B7
:101DF0002DD0784A6032904229D0764A783290428B
:101E000025D0744A9032904221D0724AA832904232
:101E10001DD048451BD0704A1832904217D06E4AE8
:101E20003032904213D06C4A483290420FD06A4A06
:101E3000603290420BD0684A7832904207D0664AAE
:101E40009032904203D0644AA83290424FD1006849
:101E500010F0020F04D0A960606D40F004006065CE
:101E600094F85C00102100F01F008140314259D0ED
:101E70002068B84235D0404533D0504531D0584520
:101E80002FD0544A603290422BD0524A783290423E
:101E900027D0504A9032904223D04E4AA8329042E6
:101EA0001FD048451DD04C4A1832904219D04A4A9A
:101EB0003032904215D0484A483200E015E0904256
:101EC0000FD0454A603290420BD0434A783290425C
:101ED00007D0414A9032904203D03F4AA832904204
:101EE00007D1006800F0080006E0006870E70068AD
:101EF000B6E7006800F00400A0B1A960206801689E
:101F0000490304D50068000308D5A16C07E0016807
:101F1000C90503D4016821F008010160216C09B1F1
:101F20002046884794F85C00202100F01F00814083
:101F3000314278D02068B84233D0404531D0504546
:101F40002FD058452DD0234A6032904229D0214AC3
:101F50007832904225D01F4A9032904221D01D4ABB
:101F6000A83290421DD048451BD01B4A18329042DF
:101F700017D0194A3032904213D0174A4832904253
:101F80000FD0154A603290420BD0134A78329042FB
:101F900007D0114A9032904203D00F4AA8329042A3
:101FA00003D1006800F0100002E0006800F00200B9
:101FB000A0B3A96094F835000428206801680DD00A
:101FC00049037CD50068000329D4616C28E0000037
:101FD00008000024100002401004024021F0160105
:101FE00001602068416921F080014161206C08B9DD
:101FF000A06C20B12068016821F00801016094F80C
:102000005C0000F01F013F208840A860012084F898
:102010003500002084F83400216D65E003E0E16BB9
:1020200009B120468847606D00287DD0606DC007EB
:1020300059D0042084F835002068B8422BD04045A0
:1020400029D0504527D0584525D09E49884222D0D6
:102050009C49183188421ED09A49303188421AD0A2
:1020600098494831884216D0484514D0964988424C
:1020700011D09549183188420DD0934930318842AA
:1020800009D091494831884205D08F496031884252
:1020900001D08D497831016821F00101016021688A
:1020A0000098019A401C0090904202D80868C0072E
:1020B000F6D10868C00710D003200FE0FFE70168E1
:1020C000C905ACD4016821F010010160012084F839
:1020D0003500002084F83400A1E7012084F83500A1
:1020E000002084F83400E16C00291DD002B02046A5
:1020F000BDE8F05F0847754988421DD07349143127
:10210000884219D071492831884215D06F493C3135
:10211000884211D06D49503188420DD06B496431ED
:10212000884209D0694900E084E07831884203D0D0
:1021300066498C3188427DD101684FF0040894F8DB
:102140005C6006F01F0608FA06F818EA020FCDF8E0
:10215000008047D05FEA417844D500986860080461
:1021600003D5C8033CD4A16CBEE7880638D42068E8
:10217000B8422DD053494839884229D0504527D0FC
:10218000584525D04F49884222D04E4918318842BF
:102190001ED04C49303188421AD04A4948318842D1
:1021A00016D0484514D04849884211D046491831C4
:1021B00088420DD044493031884209D0704507D05B
:1021C000984205D0604503D03F499031884203D101
:1021D000016821F0080102E0016821F004010160BA
:1021E000216C81E74FF0020808FA06F818EA020F9E
:1021F000CDF800804FD05FEA81784CD500986860B8
:10220000080403D5C80344D4616C6DE7880640D444
:102210002068B8422FD02B49483988422BD05045EE
:1022200029D0584527D02749884224D0254918313C
:10223000884200E043E01ED02249303188421AD063
:1022400020494831884216D0484514D01E4988425A
:1022500011D01D49183188420DD01B4930318842B8
:1022600009D0704507D0984205D0604503D0164983
:102270009031884203D1016821F0140102E0016825
:1022800021F00A010160012084F83500002084F863
:102290003400E16B28E70823B34013420FD009074D
:1022A0000DD5016821F00E01016094F85C0000F08A
:1022B0001F01012000FA01F1696060650EE7BDE8C9
:1022C000FC9F00007000024028040240085402589D
:1022D0002DE9F05F044600F0C7FA0646F4B3E24F7A
:1022E0000222DFF884830025DFF87C93DFF878A3EF
:1022F00008F13008DFF870B309F1480920680AF1E5
:10230000600A0BF1780BB84234D0D74918318842B3
:1023100030D040452ED048452CD050452AD0584585
:1023200028D0D1499031884224D0CF49A831884261
:1023300020D0CE4988421DD0CC491831884219D0CE
:10234000CA493031884215D0C8494831884211D035
:10235000C649603188420DD0C44900E042E078317E
:10236000884207D0C1499031884203D0BF49A83183
:1023700088427CD184F83520B84284F834502CD07F
:10238000B9491831884228D0404526D0484524D044
:10239000504522D0584520D0B349903188421CD0B6
:1023A000B149A831884218D0B049884215D0AF4908
:1023B0001831884211D0AD49303188420DD0AB4937
:1023C0004831884209D0A9496031884205D0A749DF
:1023D0007831884201D0A5499031016821F001018E
:1023E000016009E00120BDE8F09F00F03DFA801B8C
:1023F000052801D9202015E120680068C007F4D124
:10240000226811689A480140D4E902031843D4E9CC
:10241000043633431843A3691843E3691843236A16
:1024200018430843616A042903D1D4E90B13194303
:102430000843904909686FF30F01B1F1005F0FD3B2
:102440006168A1F12903052B08D9163B032B05D997
:10245000083B012B02D94F39032901D840F48010E1
:1024600010602068406920F00701606A00E01CE00D
:10247000042840EA01060BD1A06A0643E06A38B19D
:102480002046FEF7B5FE18B1402060650120CBE084
:10249000206846612046FEF7C1FD94F85C1001F00B
:1024A0001F023F219140816056E0734988421BD052
:1024B000714B1433984217D06F4B2833984213D086
:1024C0006D4B3C3398420FD06B4B503398420BD03E
:1024D000694B6433984207D0674B7833984203D0F6
:1024E000654B8C3398427DD1884201D062491431CA
:1024F00084F8352084F83450026860490A40A168A5
:10250000402970D080296FD00021E36841EAD301CF
:10251000236941EAD301636941EAD301A36941EA2E
:10252000D301E36941EAD301236A41EA131111435C
:10253000016051492068494208441421B0FBF1F080
:102540008000E0652046FEF769FD94F85C1001F01C
:102550001F020121914041602068B84255D0424994
:102560001831884251D040454FD048454DD0504554
:102570004BD0584549D03C499031884245D03A49E2
:10258000A831884241D0394988423ED03749183174
:1025900088423AD035493031884236D033494831C3
:1025A000884232D03149603188422ED02F4978316B
:1025B00088422AD02D499031884226D02B49A83113
:1025C000884222D02C4988421FD02B49143188429E
:1025D0001BD029492831884217D027493C318842ED
:1025E00013D002E01DE017E018E023495031884283
:1025F0000BD021496431884207D01F497831884285
:1026000003D01D498C31884228D12046FEF762FD57
:10261000A06880280BD00BE0102176E74FF48041B2
:1026200073E740206065032084F83500DAE66560D2
:10263000216E20790860D4E9190141606068401E6C
:10264000072808D82046FEF795FDE06E0560D4E91E
:102650001C01416002E0E56625676567656501204C
:1026600084F835000020BEE610000240100402404D
:102670003F8010FE0010005C085402580F00FEFF5F
:102680002DE9F84F694C00224FF0B04A4FF0010B92
:102690004FF003084FF00F09C0E00BFA02F6334089
:1026A00073D00D7905F00305012D01D0022D15D150
:1026B0008768550008FA05FC27EA0C07D1F80CC01A
:1026C0000CFA05FC4CEA070CC0F808C04568B54395
:1026D0000E79C6F3001696402E4346600D79ED4301
:1026E000AD0708D0C668550008FA05F7BE438F68E5
:1026F000AF403743C7600D7905F00305022D11D1B6
:10270000D50800EB85073E6A5507ED0E09FA05FC72
:1027100026EA0C06D1F810C00CFA05FC4CEA060CAF
:10272000C7F820C00668550008FA05F7BE430F79C0
:1027300007F00307AF40374307604D6815F4403F8B
:102740006BD03B4D2E6846F002062E602D6822F0BD
:10275000030606F1B04605F002050095D6F80874A8
:1027600095074FEA157C09FA0CF5AF43314DA842A5
:1027700001D100252EE0304DA84201D1012529E0EC
:102780002E4DA84202D1022524E046E02C4DA8425D
:1027900001D103251EE02B4DA84201D1042519E0EB
:1027A000294DA84201D1052514E0284DA84201D1A8
:1027B00006250FE0264DA84201D107250AE0254D48
:1027C000A84201D1082505E0234DA84201D10925E1
:1027D00000E00A2505FA0CF53D43C6F80854DAF87E
:1027E000005056464F689D43FF0200D51D4335609B
:1027F00075684F689D43BF0200D51D4375606568CD
:102800004E689D43B60300D51D43656025684E683C
:102810009D43F60300D51D432560521C0B6833FA17
:1028200002F57FF43AAFBDE8F88F00008000005851
:10283000F4440258000002580004025800080258EC
:10284000000C0258001002580014025800180258D8
:10285000001C025800200258002402580069084059
:1028600000D00120704700000148806870470000D8
:102870001C0000240248816802781144816070477E
:102880001C00002470B50D4D04462A78A2B14FF407
:102890007A700B49B0FBF2F00968B1FBF0F000F080
:1028A0005EFD48B9102C07D200222146501EFEF0D2
:1028B000FFFF00206C6070BD012070BD1C00002473
:1028C00008000024BFF35F8F0448016821F48031C1
:1028D00001600249002070310860704724ED00E07B
:1028E000074940F00100086005487038016841F46C
:1028F00080310160BFF34F8FBFF36F8F70470000CF
:1029000094ED00E0064A00F0070110684FF6FF035F
:10291000184040EA01200349084310607047000056
:102920000CED00E00000FA05484910B50A68096896
:1029300002F00302454B1B1DC1F305511B68434CBC
:102940001C34C3F300232468C4F3CC0414FB03F346
:1029500000EE103AB8EE400AE9B33C4B9FED3C1A4A
:102960001833F7EE000A62B1DFED3A1A012A01D0FE
:10297000022A5ED002EE101AF8EE422A81EEA22A56
:102980001AE0324A283A1468A4060DD51268C2F338
:10299000C104314AE24001EE902AF8EE612A01EECC
:1029A000901AF8EE611A05E001EE901ADFED2B2A7D
:1029B000F8EE611A82EEA12A1968C1F3080101EE4E
:1029C000901A1968F8EE611A40EE011A31EEA00A69
:1029D00022EE000A00E033E0C1F3462101EE101AB6
:1029E000B8EE411A31EE201AC0EE011ABCEEE11A1F
:1029F00080ED001A1968C1F3064101EE101AB8EE15
:102A0000411A31EE201AC0EE011ABCEEE11A80ED37
:102A1000011A1968C1F3066101EE101AB8EE411AE5
:102A200071EE200A80EE201ABCEEC10A80ED020A87
:102A300010BD01EE901ADFED0A2AF8EE611AB9E72F
:102A4000002101604160816010BD000028440258EF
:102A5000000000390024744A0090D0030024744C14
:102A600020BCBE4B00B5FFF033F905490968054AA3
:102A7000C1F30221515C01F01F01C84000BD0000FC
:102A80001C440258285910082DE9F05F040079D041
:102A90002078DFF8F8A3FE4EFE4DC00747D0DAF8E5
:102AA0000000316800F03800102815D0182803D134
:102AB00001F0030002280FD06068B0F5803F12D00B
:102AC00010B1B0F5A02F18D0286820F4803028600D
:102AD000286820F4802009E02868800327D56068F2
:102AE0000028D4D023E0286840F480302860606853
:102AF00088B1FFF7B9FE074609E0286840F4802056
:102B00002860F0E7FFF7B0FEC01B642872D8286881
:102B10008003F7D50BE0FFF7A7FE074604E0FFF7B9
:102B2000A3FEC01B6428F1D828688003F7D420785E
:102B300041F20309D84F800766D5DAF80000316802
:102B400010F038000ED0182801D188070AD0E068AC
:102B500080B3296821F0190101432960FFF784FE41
:102B600080462EE02868400702D5E06800288ED015
:102B70002868E16820F0190008432860FFF774FE18
:102B8000804606E0D8E0FFF76FFEA0EB08000228C1
:102B9000BCD828684007F6D5FEF01EFE48451AD876
:102BA0002069402811D0396821F47C3141EA003095
:102BB000386029E016E0FFF757FEA0EB0800022876
:102BC000A4D828684007F6D5E6E7386820F47C30BA
:102BD00040F40030ECE73868217C20F0FE4040EA09
:102BE0000160E5E7286820F001002860FFF73CFE5F
:102BF000804606E000E1FFF737FEA0EB0800022860
:102C000084D828684007F6D42078C0065AD5DAF868
:102C10000000316800F03800DFF870B20828ABF12E
:102C2000040B10D0182803D101F0030001280AD0AA
:102C3000E0690028286836D040F080002860FFF75F
:102C400013FE804621E02868C00521D5E069802870
:102C500072D11DE0206A20281FD0396821F0F84188
:102C600041EA806038602DE0DBF8001094F8202005
:102C700021F07C5141EA0261CBF8001022E0FFF71D
:102C8000F3FDA0EB080002289AD82868C005F6D505
:102C9000FEF0A2FD4845E7D8DCE7386820F0F840B0
:102CA00040F08040DEE720F080002860FFF7DCFD88
:102CB000074604E0FFF7D8FDC01B0228A0D828680B
:102CC000C005F7D42078000728D5714960694C31D8
:102CD000002888460846096810D041F001010160CB
:102CE000FFF7C2FD074604E0FFF7BEFDC01B022848
:102CF00086D8D8F800008007F6D50FE021F0010152
:102D00000160FFF7B1FD074604E0FFF7ADFDC01B12
:102D1000022871D8D8F800008007F6D42078800601
:102D200023D5A0690028286810D040F4805028607E
:102D3000FFF79AFD074605E02EE1FFF795FDC01B62
:102D4000022859D828688004F7D50EE020F4805076
:102D50002860FFF789FD074604E0FFF785FDC01BEB
:102D6000022849D828688004F7D4207840074DD538
:102D7000DFF82881D8F8001041F48071C8F80010FD
:102D8000FFF772FD074604E0FFF76EFDC01B6428E5
:102D900032D8D8F80000C005F6D53D4FA0684837B6
:102DA00001280AD008B1052813D0386820F00100A6
:102DB0003860386820F0040002E0386840F0010014
:102DC0003860A06841F2883990B1FFF74DFD804628
:102DD0000AE0386840F004003860EEE7FFF744FD91
:102DE000A0EB0801494507D838688007F6D50DE003
:102DF000FFF73AFD804606E084E0FFF735FDA0EBE3
:102E0000080149457ED838688007F6D4616AD9B38D
:102E1000DAF80000DFF87880C0F3C200032808F178
:102E2000080870D02868022920F08070286003D03C
:102E3000FFF71AFD044684E0FFF716FD074604E09D
:102E4000FFF712FDC01B022878D828688001F7D44C
:102E5000306840F2F3318843E16A40EA0110A16A28
:102E60000843306094F834004FF4FE02218E400293
:102E7000491EA0F5007080B2C1F308010843218FFC
:102E8000491E02EA01410BE088E0000010440258AC
:102E9000284402580044025804440258004802588A
:102EA000084394F83C101202491E02EA01610843EB
:102EB000C8F800003A48016821F001010160384972
:102EC00008310A684FF6F8739A43A36C42EAC302CA
:102ED0000A600168226C21F00C0111430160016855
:102EE000626C21F0020111430160016841F48031FC
:102EF0000160016841F400310160016841F4802102
:102F0000016001E01AE020E0016841F00101016088
:102F1000286840F080702860FFF7A6FC044604E0B3
:102F2000FFF7A2FC001B022808D828688001F7D50B
:102F300034E0FFF799FC001B022802D90320BDE80A
:102F4000F09F28688001F4D428E03268D8F80000A7
:102F5000012921D0A36A02F0030199421CD1E16A40
:102F6000C2F30512914217D1216BC0F30802491E2A
:102F70008A4211D1616BC0F34622491E91420BD1A6
:102F8000A16BC0F30642491E914205D1E16BC0F32B
:102F90000660491E814201D00120D0E70020CEE723
:102FA0002C440258704700002DE9F04704460068A1
:102FB0000769D0F81490D0F8088007EA090594F85A
:102FC0008160002015F0600F08D1690706D5616F98
:102FD00020468847216F20468847012005F041019F
:102FE000012905D1690703D4216F204688470120B4
:102FF00005F02201022906D1690704D4616F204639
:10300000BDE8F0470847002858D128074FF0010ACB
:1030100069D52068816941F0080181612068816972
:1030200041F0100181612068816941F40061816192
:103030002068016921F00801016118F4404F09D0AE
:10304000042E04D0A06FC06920B1032E3FD0E06FE2
:10305000C069A8BB2068806810F4404F1FD022E0F0
:10306000E0680F2806D92068006B616E0860606E0A
:10307000001D0EE00728206805D9008E616E0880CB
:10308000606E801C05E090F83000616E0870606E24
:10309000401C6066B4F86A00401EA4F86A00B4F8E8
:1030A0006A000028DCD12046FFF0FFFC84F881A0F4
:1030B000D4F8840020B12046FFF774FFBDE8F08704
:1030C000FFE7052E07D0042E09D0032EF6D12046A7
:1030D00000F03EF9F2E7204600F040F9EEE7204626
:1030E00000F07EF8EAE75FEA095007D5380705D512
:1030F0002068816941F400618161DFE715F4587F40
:10310000DCD068060AD5D4F8840040F00400C4F886
:1031100084002068816941F040018161A8050AD5D9
:10312000D4F8840040F00100C4F88400206881696C
:1031300041F400718161E8050AD5D4F8840040F0BB
:103140000800C4F884002068816941F480718161BD
:10315000A8060AD5D4F8840040F08000C4F88400A2
:103160002068816941F020018161D4F88400002841
:10317000A4D02068016821F0010101602068016984
:1031800040F26B3291430161C8F38130032802D0D1
:1031900084F881A08FE72068816821F44041816034
:1031A0000E4DE06F50B10565E06FFEF7DFFB28B113
:1031B000D4F8840040F04000C4F88400A06F0028D8
:1031C00088D00565A06FFEF7D1FB002886D0D4F823
:1031D000840040F04000C4F884006FE7672B1008BB
:1031E000704700002DE9F041044690F88000154634
:1031F000012809D0012784F8807094F88100002606
:10320000012804D0022032E00220BDE8F08169B339
:1032100065B3032084F88100C4F88460E165A4F8F4
:103220006050A4F86250666666672667A4F8686016
:10323000A4F86A60A068B0F5C02F04D120680168C6
:1032400041F400610160E1684FF480420F2903D925
:10325000A06F8069904209D1A06F07294FF40053F5
:1032600008D98069984216D0904214D0012084F881
:103270008060CAE78169994205D1B4F86210491C9F
:103280004908A4F86210806990420ED1B4F8620037
:10329000C01C800807E00F2907D8904205D1B4F878
:1032A0006200401C4008A4F86200A16F2548086431
:1032B000A16F2548C863A16F2448C864A06F066544
:1032C0002068816821F400418160B4F8623022688E
:1032D000E16DA06F2032FEF017F958B1D4F88400E8
:1032E00040F01000C4F8840084F88060384684F808
:1032F00081708AE7A06FC069B0F5807F206841685F
:103300006FF30F0100D0294341602068816841F4C8
:10331000004181602068016941F4487101612068C1
:10332000016841F0010101606068B0F5800F04D1CF
:103330002068016841F400710160304684F88060C3
:1033400063E70000753D00087F3D0008493D000827
:103350000149012008707047280000247047401E72
:10336000B0F1807F10B501D3012010BD4FF0E024F3
:1033700060610F216017FFF082FE0020A06107202E
:103380002061002010BD7047704710B5040003D0C5
:10339000D4F8840010B107E0012010BD002084F8AB
:1033A00080002046FFF0D0F82420C4F88400206874
:1033B000016821F001010160204600F099FE01281A
:1033C000EBD0A06A10B1204600F0F0FC2068416804
:1033D00021F4904141602068816821F02A018160D8
:1033E0002068016841F0010101602046BDE81040FD
:1033F000FFF07EBC7047FEE72DE9F0410D4F002441
:103400000646214620467B883A8800F07DF93D88B3
:103410000021788845430846FFF0C8F9FFF000FA1C
:1034200003E0304600F092F9641CAC42F9D3BDE8E9
:10343000F08100003C3800242DE9FE4F0026824632
:10344000A2EB000835465F1A8946701EB8F1000FDE
:1034500002DD4FF0010102E003D14FF000010191C4
:1034600002E0C8F100080190002F02DD4FF00100DA
:1034700002E003D14FF00000009002E0C7F1000726
:103480000090B845404601DD044600E03C464FF060
:10349000000B601C029016E01FFA89F10C9A1FFACB
:1034A0008AF0FFF055F94644A6423D4402DD0199F9
:1034B000361B8A44A54202DD00992D1B89440BF17D
:1034C00001001FFA80FB02998B45E5DDBDE8FE8F08
:1034D000174810B586B0016841F00201016000682C
:1034E0006946144C00F00200059041F20300009080
:1034F000012001900290032003902046FFF7C0F8BE
:10350000012220461146FEF061F9012220460221E7
:10351000FEF05CF9012220461103FEF057F900F09D
:103520000BF8002220460121FEF050F906B010BD34
:10353000E044025800040258322010B500F186FC25
:10354000BDE810401E2000F181BC000010B5FFF75F
:10355000BFFFFFF03FF9322000F178FC3620FFF08A
:1035600043F9002000F010F93A20FFF03DF9052062
:1035700000F00AF9B220FFF037F90C2000F004F94E
:103580000C2000F001F9002000F0FEF8332000F0DC
:10359000FBF8332000F0F8F8B720FFF025F93520CC
:1035A00000F0F2F8BB20FFF01FF9192000F0ECF852
:1035B000C020FFF019F92C2000F0E6F8C220FFF03F
:1035C00013F9012000F0E0F8C320FFF00DF91220FC
:1035D00000F0DAF8C420FFF007F9202000F0D4F85A
:1035E000C620FFF001F90F2000F0CEF8D020FFF048
:1035F000FBF8A42000F0C8F8A12000F0C5F8E020F6
:10360000FFF0F2F8D02000F0BFF8042000F0BCF882
:103610000D2000F0B9F8112000F0B6F8132000F0EA
:10362000B3F82B2000F0B0F83F2000F0ADF85420A4
:1036300000F0AAF84C2000F0A7F8182000F0A4F839
:103640000D2000F0A1F80B2000F09EF81F2000F0E4
:103650009BF8232000F098F8E120FFF0C5F8D02077
:1036600000F092F8042000F08FF80C2000F08CF8A5
:10367000112000F089F8132000F086F82C2000F0CB
:1036800083F83F2000F080F8442000F07DF85120BE
:1036900000F07AF82F2000F077F81F2000F074F87F
:1036A0001F2000F071F8202000F06EF8232000F0B9
:1036B0006BF82120FFF098F81120FFF095F87820A2
:1036C00000F1C4FB2920FFF08FF8C82000F1BEFBF9
:1036D0000220FEF0DFFF0020FFF78EFE01220348EC
:1036E000BDE810401146FEF071B800000004025819
:1036F00001B504480A2301226946FEF05CFC20461D
:1037000008BD00003C3700242DE9F04104460E4F6F
:1037100010448846401E86B2C818401E85B278897B
:10372000FFF062F8204600F011F8304600F00EF885
:10373000B889FFF059F8404600F008F82846BDE87F
:10374000F04100F003B800003C38002470B50D4E85
:103750004FF480550022044629463046FEF036F8E4
:10376000012230460221FEF031F8200AFFF7C0FFA7
:10377000E0B2FFF7BDFF29463046BDE870400122A8
:10378000FEF024B80004025870B50C4D4FF480547C
:103790000022064621462846FEF018F80122284657
:1037A0000221FEF013F83046FFF7A2FF214628461B
:1037B000BDE870400122FEF009B800000004025884
:1037C00010B50C46FFF010F8E0B2BDE81040FFF76E
:1037D000DBBF3EB5002501241021009403232246BF
:1037E0004806CDE90145FFF021F81221009403239A
:1037F00002224806CDE90145FFF018F803230094A2
:1038000012211A461807CDE90145FFF00FF8009480
:10381000032304220F21CDE901454FF06050FFF052
:1038200005F83EBD364838B5016841F00101016038
:103830000068354C00F00100324D00902820291519
:10384000C4E900504020A0600020C4E903018901C0
:103850006061A061C4E9070160622046FEF738FD9F
:103860002068A8423AD027491831884236D02549E5
:103870003031884232D02349483188422ED0214904
:10388000603188422AD01F497831884226D01D49AC
:103890009031884222D01B49A83188421ED01B4952
:1038A00088421BD019491831884217D01749303146
:1038B000884213D01549483188420FD013496031EE
:1038C00088420BD011497831884207D00F49903196
:1038D000884203D00D49A831884203D1016841F0E4
:1038E000100102E0016841F0020101600B20FDF0CF
:1038F000D2FF0022BDE838400B201146FDF0D8BFB2
:10390000D844025810000240C4370024100402407A
:10391000FEE770B520252C4630B1012807D00328DA
:1039200008D004280BD108E01825342407E01C2512
:103930002A2404E02425162401E028250C24002153
:10394000FF20FFF093F800217C20FFF08FF8042186
:103950007D20FFF08BF807217C20FFF087F82021E5
:103960007D20FFF083F87D202946FFF07FF87D2041
:103970002146FFF07BF8BDE8704006217D20FFF076
:1039800075B80000044B20B1012218462021FDF03B
:103990001DBF0022F9E70000000002584C48F0B5B6
:1039A0000168002487B041F001010160016801F065
:1039B00001010591016841F00401016000680125E1
:1039C0000326444F00F004000590A0206946CDE98D
:1039D0000005CDE902563846FEF752FE1020694632
:1039E000CDE90005CDE902563B4D2846FEF748FEDD
:1039F0000020FFF7C7FF0120FFF7C4FFC82000F138
:103A000025FA0020FFF7BEFF002238468021FDF096
:103A1000DDFE0A2000F11AFA002228461021FDF0EE
:103A2000D5FEC82000F112FA012228461021FDF02F
:103A3000CDFEC82000F10AFA00F08CF80121FF2029
:103A4000FFF014F880211220FFF010F8322000F16E
:103A5000FDF91C20FEF0B2FF204D4FF6FF7606EA7E
:103A6000002028801D20FEF0A9FF29880843288017
:103A7000A0F5FE41A23902D0012007B0F0BD0A2016
:103A8000FEF09CFF06EA002028800B20FEF096FF47
:103A9000298808432880A0F51851423905D042F200
:103AA0004161884201D00220E7E70D4D05EB44005B
:103AB000417815F81400FEF0D9FF0A2C02D2052037
:103AC00000F1C4F9641CA4B2B42CEFD30020D4E7F5
:103AD000E044025800000258000802582E0000245A
:103AE0005059100870B5074D002405EB440041788B
:103AF00015F81400FEF0BAFF641CA4B20E2CF4D327
:103B000070BD0000C65A100838B502244FF6FF7089
:103B1000FFF772FCFFF7E6FFFDF056F80B4938227D
:103B20000948086060020A49C3000090A1F560706E
:103B3000FDF740F970210846FEF015FF2046BDE86C
:103B40003840FFF7E6BE0000FD47100830000024B3
:103B5000CC9D00240C4800B587B0016841F00201FB
:103B600001600068694600F0020005904FF4406073
:103B70000090012001900290032003900348FEF77B
:103B80007FFD07B000BD0000E04402580004025869
:103B900070B5052001F07CF90122104DD4022846B1
:103BA0002146FDF013FE0122284696023146FDF023
:103BB0000DFE052001F06CF9002231462846FDF08B
:103BC00005FE052001F064F9002221462846FDF09B
:103BD000FDFDBDE87040052001F05AB9000402580F
:103BE0002DE9F041002400F029F80825124E4FF489
:103BF0000068EF01052001F04BF9012239463046FB
:103C0000FDF0E4FD60064146040E3046FEF726FE58
:103C100008B1641CE4B2052001F03AF900223946EB
:103C20003046FDF0D3FD6D1E15F0FF05E2D1FEF02C
:103C3000EBFE2046BDE8F0810004025800B585B0D7
:103C40004FF400606946009000200190012002902E
:103C5000032003900248FEF713FD05B000BD0000ED
:103C60000004025870B501220E4DD40228462146A8
:103C7000FDF0ACFD0122284696023146FDF0A6FD7E
:103C8000052001F005F9002221462846FDF09EFDA1
:103C9000052001F0FDF831462846BDE870400022BD
:103CA000FDF094BD000402582DE9F041224E00249D
:103CB0004FF4006805464FF48067280601D50122BD
:103CC00000E0002241463046FDF080FD6806050E0A
:103CD000052001F0DDF8012239463046FDF076FD81
:103CE000052001F0D5F8002239463046FDF06EFD82
:103CF000641CE4B2082CE0D3FFF7A0FF052001F01C
:103D0000C7F8012239463046FDF060FD052001F07C
:103D1000BFF841463046FEF7A1FD08B1012400E09E
:103D20000024394600223046FDF050FDFEF06CFEC6
:103D30002046BDE8F0810000000402580148FFF76A
:103D400033B900003C37002410B5846BFDF744FF05
:103D500002280ED02046FEF0A8FED4F8840040F0E1
:103D60001000C4F88400012084F881002046FFF789
:103D700019F910BD10B5806BFEF033FA10BD10B507
:103D8000806B90F88110072909D0816FC969B1F55E
:103D9000807F05D00068016941F00801016110BD14
:103DA000FFF7D6FA10BD7047FEF764BD90F82810F3
:103DB000C90706D001684A68C36A22F400321A4370
:103DC0004A6090F82810890706D501684A68036B95
:103DD00022F480321A434A6090F82810490706D529
:103DE00001684A68436B22F480221A434A6090F8C3
:103DF0002810090706D501684A68836B22F400423F
:103E00001A434A6090F82810C90606D501688A68E6
:103E1000C36B22F480521A438A6090F828108906F6
:103E200006D501688A68036C22F400521A438A603E
:103E300090F82810490611D501684A68436C22F4AD
:103E400080121A434A60416CB1F5801F06D10168A7
:103E50004A68836C22F4C0021A434A6090F8281022
:103E6000090606D501684A68C06C22F400220243A4
:103E70004A60704710B5806B0021A0F85E10A0F872
:103E80005610FEF0B1F910BD10B5016851E8002FD1
:103E900022F4907241E80023002BF6D10E4B01680A
:103EA000083151E8002F1A4041E80024002CF6D1D7
:103EB000C16E012908D1016851E8002F22F01002DB
:103EC00041E80023002BF6D12021C0F88810002102
:103ED000C166016710BD0000FEFFFFEF10B5B0F82E
:103EE0006020D0F888300168222B04D0886940F027
:103EF0000800886110BD496A836D11401980816D89
:103F0000891C8165B0F85E10491EA0F85E10B0F8FB
:103F10005E100029EED1016851E8002F22F4907262
:103F200041E80023002BF6D10168083151E8002F49
:103F300022F0010241E80023002BF5D12021C0F836
:103F4000881000210167C26E012A02D0FEF06EFBCC
:103F500010BDC166016851E8002F22F0100241E84F
:103F60000023002BF6D10168CA69D243D20601D4DE
:103F700010220A62B0F85C10FFF705FA10BD0000CD
:103F80002DE9F047B0F8609004460068C5690768FD
:103F90008668D4F88810222905D0816941F008018B
:103FA0008161BDE8F087B4F868804FF0000A61E0F5
:103FB0002068406AA16D00EA09000870A06D401CED
:103FC000A065B4F85E00401EA4F85E002068C569D4
:103FD00069072DD0E90709D0F90507D5012101624C
:103FE000D4F88C0040F00100C4F88C00A8070AD572
:103FF000F00708D0216802200862D4F88C0040F055
:104000000400C4F88C0068070AD5F00708D02168BE
:1040100004200862D4F88C0040F00200C4F88C0040
:10402000D4F88C0020B12046FEF0DEF8C4F88CA055
:10403000B4F85E00F0B9206850E8001F21F48071E8
:1040400040E80012002AF6D1274A2068083050E8DC
:10405000001F114040E80013002BF6D12020C4F8C7
:104060008800C4F870A05046E16E012925D0204692
:10407000FEF0DCFAB8F1000F01D0A80698D4B4F82D
:104080005E0000288DD0B4F86810814289D920687C
:10409000083050E8001F21F0805140E80012002A4B
:1040A000F5D112482067206850E8001F41F0200138
:1040B00040E80012002AF6D173E7E066206850E875
:1040C000001F21F0100140E80012002AF6D12068FC
:1040D000C169C943C90601D410210162B4F85C105A
:1040E0002046FFF750F9C5E7FEFFFFEFC12E10088D
:1040F0002DE9F043044600680025DFF8548387B0BB
:104100002269A168E369114362691A431143026895
:10411000D04B1A400A43026020684168E26821F4EB
:104120004051114341602168A069414501D0226A94
:1041300010438A68C84B1A4002438A602068C16AEB
:10414000626A21F00F011143C162C4492268C44868
:104150008A420ED1006800F03800182873D047DC7E
:10416000B8B3082879D010286FD178E028287ED1FC
:104170007BE0BC498A4209D1006800F007000628AC
:1041800075D2DFE800F0546A6C6E7072B6498A42EC
:1041900009D1006800F00700062868D2DFE800F0C7
:1041A000475D5F616365B1498A4209D1006800F0EB
:1041B000070006285BD2DFE800F03A505254565808
:1041C000AB498A420BD1006800F0070006284ED2A6
:1041D00000E010E0DFE800F02B4143454749A549E6
:1041E0008A420AD1006800F03800182839D0B7DDBB
:1041F0002028BBD137E001213AE09F498A4209D10A
:10420000006800F00700062831D2DFE800F0102631
:10421000282A2C2E99498A420BD1006800F0070009
:10422000062824D2DFE800F003191B1D1F210021FE
:104230001EE042451BD18A48001D006800F00700BF
:10424000062814D202E00CE007E010E0DFE800F0FE
:10425000030507090B0D02210AE0042108E00821EB
:1042600006E0102104E0202102E0402100E080214E
:1042700083487B4B4FF4004C824E4FF000090711EE
:10428000543B42454DD1102919D006DC022909D0F2
:1042900004290AD008297DD10CE020293DD04029ED
:1042A00078D13CE0FDF02CFB10E06846FDF03AFBD5
:1042B00001980BE003A8FEF737FB049806E01968A5
:1042C000890605D51968C1F3C101C840002823D06B
:1042D000616A36F811206668B0FBF2F106EB46031E
:1042E0008B4257D8B1EB063F54D800234F461946AE
:1042F000FBF0ACFE0902020241EA106170081018DE
:10430000324679410023FBF0A1FE5F4AA0F54071DF
:1043100091423FD82168C86086E03846D8E76046B9
:10432000D6E7E2694FF6EF78624545D1082918D003
:1043300005DC59B101290CD0042974D10CE01029F5
:1043400014D0202934D040296DD133E0FDF0E2FCB7
:1043500013E0FEF787FB10E06846FDF0E3FA0198F2
:104360000BE003A8FEF7E0FA049806E01968890656
:1043700004D51968C1F3C101C84080B3616A36F839
:104380001110B0FBF1F04100606801EB5001B1FB8E
:10439000F0F000E047E0A0F11002424543D84FF6AC
:1043A000F0710140C0F3420001432068C1603BE06E
:1043B0003846E3E76046E1E7082919D005DC59B142
:1043C00001290DD004292ED10DE0102915D0202966
:1043D00037D0402927D136E0FDF09CFC14E023E0E3
:1043E000FEF740FB10E06846FDF09CFA01980BE0F8
:1043F00003A8FEF799FA049806E01968890604D51F
:104400001968C1F3C101C84070B1616A36F8111072
:10441000B0FBF1F1606801EB5001B1FBF0F0A0F1ED
:104420001001414511D901250120A4F86A00A4F822
:1044300068002846C4F87090C4F8749007B0BDE8CE
:10444000F0833846E1E76046DFE780B262E70000CC
:10445000000C0058F369FFCFFFF4FF11001001407A
:10446000544402580044004000480040004C0040C2
:10447000005000400014014000780040007C0040E3
:104480000090D00338591008FFFC0F0070B581650B
:10449000A0F85C20A0F85E2000240467FF23816858
:1044A0004FF48055A94204D10169F9B940F2FF11D6
:1044B00022E07F26C1B1B1F1805F1AD0A0F8604040
:1044C000C0F88C402221C0F888100168083151E8FA
:1044D000003F43F0010341E80036002EF5D1416E64
:1044E000B1F1005F0ED032E0016941B9A0F860304F
:1044F000E6E7016919B13F21A0F86010E0E7A0F8F4
:104500006060DDE7B0F86810914220D88168A94268
:1045100001D10169C9B11F49016780F88040016973
:1045200041B1016851E8002F42F4807241E8002354
:10453000002BF6D10168083151E8002F42F080527B
:1045400041E80023002BF5D121E01349E4E781681D
:10455000A94201D1016979B11049016780F8804011
:10456000016959B1016851E8002F42F4907241E8A5
:104570000023002BF6D10AE00949EEE7016851E873
:10458000002F42F0200241E80023002BF6D100204A
:1045900070BD0000813F0008512D1008C12E100889
:1045A000DD3E00080148FDF021BE0000AC360024CD
:1045B00030EE000A704700009FED020A20EE000A6C
:1045C000704700000000001030B5012903464FF08D
:1045D0000000DDE903540CD0914209D17BB3012BDB
:1045E0004BD0022B4BD0032B4BD0042B4BD017209E
:1045F00030BDA5B14BB1012B09D0022B09D0032B43
:1046000009D0042B09D0152030BD012030BD052074
:1046100030BD092030BD0D2030BD112030BDACB102
:104620004BB1012B09D0022B0AD0032B0AD0042B4B
:104630000AD0162030BD022030BD062030BD1AE061
:104640000A20FBE70E20F9E71220F7E74BB1012B18
:1046500009D0022B09D0032B09D0042B09D0182034
:10466000ECE70420EAE70820E8E70C20E6E7102062
:10467000E4E71420E2E70320E0E70720DEE70B2071
:10468000DCE70F20DAE71320D8E7F0B500FB01F5EF
:10469000DDE906C6059F4FF4A0545543B4EB450F22
:1046A00000DB6C00BCF1000F00D0114601FB00F1F3
:1046B00004D001EB410000F1010006E0BB4301D052
:1046C000880002E0881804EB80001EB102EB820132
:1046D000490000E000210844F0BD30380A2801D22A
:1046E00001207047002070472DE9FE4F04009246DC
:1046F000894603D0A08D20B1266B03E00020BDE8E1
:10470000FE8F0026217B0020E082C943A08288071B
:1047100002D030221121DCE0B9F1000F60D0EEB3FD
:104720003088D8B3B9F80450002757E0B068006863
:1047300000EB0710019053D080B307EB47000290C5
:1047400009EBC0010091DBF81820B1F808C0C88857
:10475000E646CB6851680CFB00FC0CFB03FC8C4567
:1047600019D8DBF80CC0DCF80C80804513D1DCF8DC
:104770000880F0450FD1DCF8040098420BD1106896
:1047800000F076F9DBF80C30DBF81420D968D26839
:104790005143884203D2182212219AE020E0DBF82C
:1047A00018000068FEF052FE0299C00159F831105D
:1047B000B0EBC11F01D01922EEE70098006978B173
:1047C0000098808870B1A84200D305465A46DDE9BA
:1047D000001000F090F807F101072EB1308804E0D6
:1047E0001722D9E72122D7E70020B84206D97068FE
:1047F00020B150F827B0BBF1000F97D1BAF1000FEC
:1048000075D0A08D012806D9266B0C3603D03088D0
:1048100008B1002759E018225AE0B068006800EBA0
:1048200007193ED0B9F1000F3BD007EB47010191CA
:10483000D8F818200AEBC10083460389B0F806C0F7
:104840009E46C068516803FB0CF343438B42E2D899
:10485000D8F80C300093DB686345DCD1009BD3F8BB
:1048600008C0F445D7D1009B5B688342D3D1106860
:1048700000F0FEF8D8F80C20D8F81430D168DA68C7
:1048800051438842C7D3D8F818000068FEF0DEFD17
:104890000199C0015AF83110B0EBC11F03D01922A1
:1048A00016E0172214E0DBF810000028F9D0BBF85E
:1048B000040060B1A84200D3054659464246484626
:1048C00000F019F807F101073EB1308806E0212217
:1048D0001321204600F007FA10E70020B84206D95D
:1048E000706820B150F82780B8F1000F95D14FF0D3
:1048F0000100A58203E730B5D3685569DC68EB6831
:104900005C4384608B886343C3600C6944600969BD
:104910001944016091690B689B0007D4D1E9023505
:104920005B1B23448B6091694068C86030BD2DE9F2
:10493000F041002605462BE0AA68816913680A68E1
:1049400003EB061492000FD58968D4E90102FBF746
:1049500018FED4E90101084460602168884201D34F
:10496000E068081A606012E0D4E90021A3681944E5
:104970006160914201D3E168511A61608269D2E9B4
:104980000237DB1B1944916080696168C160761C45
:104990000DB1288800E00020B04206D968680028E0
:1049A00003D050F826000028C6D1BDE8F08170473A
:1049B00030B5144800218DB0FEF0FAFD10F0FF0F65
:1049C0004FF0FF3403D0020AC1B20FA016E01B491A
:1049D00030226846FBF71AFEFEF0F6FD094D6946E7
:1049E00004902868FEF0F4FD10B100200DB030BD39
:1049F000286800F0A1F8020AC1B211A0FBF7C6FCBA
:104A00002046F3E7A4350024453A20414920616956
:104A10005F6E6574776F726B5F637265617465203A
:104A20006572726F72202D20747970653D25642047
:104A3000636F64653D25640D0A000000A49F1008A3
:104A4000453A2041492061695F6E6574776F726BEA
:104A50005F696E6974206572726F72202D2074799F
:104A600070653D256420636F64653D25640D0A0013
:104A700030B5A9B1C0F3C612C0F382352A44C0F3E1
:104A80004154C0F3434302FB01F0042B00F1070043
:104A900020F0070020FA04F004D0082B07D104E02E
:104AA000002030BD00EB021001E000EB0220C01D31
:104AB000C00830BD70B5C66B0025416B0446AEB171
:104AC000E9B10120A163226CB0470220226CA16BE6
:104AD000B047A06BFEF0E6FB0146A0630320226C0A
:104AE000B047A06B6D1C0028EFD108E039B1A1637D
:104AF000A06BFEF0D7FB6D1CA0630028F8D1284600
:104B000070BD2DE9F041446B002594B101260027CA
:104B10002079C00707D0216A204611B18847304666
:104B200000E0384605442069A04202D008B104469E
:104B3000EEE72846BDE8F081FEF048BE016801229C
:104B400019B1491E0160C2847047416821B1828C4D
:104B5000491EC284416070478168C284491E8160D9
:104B60007047000010B518B1044A0168914200D0A6
:104B700000200446FBF0AEFF204610BD0001C0A19E
:104B800022B1936A13B11832FEF0B6BB0020704711
:104B900030B58BB00C46FFF7E5FF05000ED084B1B1
:104BA0002849206888420FD10090D4E90301CDE95B
:104BB0000301D4E90101CDE9010128E000200BB097
:104BC00030BD112210213AE01F49142205A8FBF73D
:104BD0001DFD04F1180007940990A16A206939B9F4
:104BE000218CE28B636A5143594301D0132207E0C1
:104BF00040B92089E188E2684843504302D012223C
:104C000010211BE01422684605A9FBF7FFFC05F103
:104C10001C0001A9FEF052FB60B105F1240003A9BC
:104C2000FEF04CFB40B10320E8602846FEF0B0FCEB
:104C30002846C4E7122200E013221621284600F07D
:104C400052F8BBE7DECAFAA128A0100870B5FFF73A
:104C500089FF041E08D0207B800706D4102220463E
:104C6000112100F040F8002070BD2046FFF749FFF9
:104C7000E06B60B1656B55B1D4E90F320020294675
:104C800098472869A84202D008B10546F4E70120F8
:104C900070BD70B515460E46FFF764FF04462A4600
:104CA0003146FFF721FD00281CD0A08D08B1266BEE
:104CB00000E00026012802D9256B0C350DE0002507
:104CC0000BE03046FEF040FB2046FFF7F3FE28469F
:104CD000FFF72DFEE08A401CE082E08AA18A88422C
:104CE000EFD380B270BD002802D0103000F0C2B8FF
:104CF0007047016802460120090A04E05368491E12
:104D000053F8213058430029F8D170470168090A47
:104D100007E04268491E52F82120012A01D00020F4
:104D200070470029F5D10120704700002DE9F047B8
:104D3000002498466FF01D0591462DED048BB0EED2
:104D4000608AF0EE408AB0EE009A4FF07E570E4631
:104D5000824645E00AEB840090ED000A002020EE38
:104D6000280A80EE081A11EE101AB9421EDAB5EEC2
:104D7000C01AF1EE10FA19DD4FF07C5211EE101A44
:104D8000914219DA401C21EE091A00B21F28F5DD04
:104D900000209FED161A0FE0401E21EE001A00B20F
:104DA000A84205DA21EE091A284605E0B6EE000A07
:104DB00011EE101AB942EFDC28F814009FED0C0A2E
:104DC00021EE001A11EE100A03F076FCCA17B1EBBF
:104DD000E07F02D06FF00040504049F82400641C8E
:104DE000B442B7DBBDEC048BBDE8F08700000000E7
:104DF0000000004F30B51C460546FEF0BDFF686858
:104E000001686143016068684168614341606868A6
:104E10008168614381606868C1686143C16030BD79
:104E200030B50C680368240A64F31F2303601B0A6F
:104E30000CE04D685B1E546855F8235054F823402D
:104E4000A54200D92C46456845F82340002BF0D1F7
:104E500030BD0168002202700260084670470120E0
:104E6000704710B1806900B1014609B18868704788
:104E700000207047037813F0FF0F01D00020704727
:104E80000170016862F31F2101600120704700007A
:104E900070B54FF0E02500216C69094AAB691268D2
:104EA0005043AA699A42FCD002D2A3EB020302E06B
:104EB000A4EB02063344194413468142F1D370BD7A
:104EC000100000242DE9F04F2DED028BAFB0816969
:104ED0000A880AB14B6800E000235B682BB10AB175
:104EE0004B6800E000235B681B68012A9A4602D9E0
:104EF0004B680C3300E000235B683BB1012A02D908
:104F00004B680C3300E000235B681B68022A179390
:104F100002D94B68183300E000235B683BB1022ADA
:104F200002D94B68183300E000235B681B68022A33
:104F300000930BD94B6813F1180F07D033F8184FB3
:104F4000012C03D95B680BB15D6800E00025032AE2
:104F500002D94B68243300E000235B6843B1032A85
:104F600002D94B68243300E000235B681E6800E030
:104F70000026436A93B1032A189302D94B6824335D
:104F800000E000235B683BB1032A02D94B6824335D
:104F900000E000235B685B68169303E0FE4C179B00
:104FA00018941693022ADAF80CE0169CD0F83CC04C
:104FB000BEF80430D4F80CB09BB21193BCF80030AA
:104FC000BCF80440D6F818C09BB2BBF80470A4B279
:104FD000AD69068DBFB2B0F82C802393009BDB68CF
:104FE0001594C4690894B4B21E941FFA88F42494EA
:104FF000D3E90169AB681B93DCF80850DBF80C308F
:105000000493DEE90234DBF808B0259302D94B683B
:10501000183300E000235B686BB1022A02D94968AB
:10502000183100E0002149688A6822B10021104649
:10503000FEF000FF03E0016A0020FFF712FF16995F
:10504000009BDAF8002009681B689FEDD48A029360
:1050500014903AB1506828B153881BB10068D0ED64
:10506000008A01E0F0EE488A31B1486820B14B88EF
:1050700013B1006890ED008A4E4510D1249B1E9814
:1050800098420CD1239B1598984208D125988442C8
:1050900005D10498584502D11198032804D0002066
:1050A0000690012E02D00EE00120F9E7B9F1010FC0
:1050B00009D1159838B9239828B91E98012802D12A
:1050C000249801281BD04FF0000C00BFDDF8588059
:1050D000009BDAF81800D8F818809B69CDF80CC04E
:1050E0008068D8F8088019909868139052B1506879
:1050F00040B1528832B1406890F9000003E04FF0AF
:10510000010CE3E70020824639B1486828B149889C
:1051100019B1406890F9000000E000200299229047
:1051200019B1486808B1016800E00021039A0A91AA
:10513000052006993B46CDE90012119A0899FFF720
:1051400043FA04990B900020099001FB0BF1199888
:1051500001FB0781814209D925981199199A604369
:1051600000FB0121414501D90120099002984088A6
:10517000012801D9012200E000220898012804D06A
:105180001199884201D1012100E0002106988DE8A3
:10519000070006FB09F0039B3A4680B21199FFF71E
:1051A00074FA05EB87010090CDE91C150A980B46AF
:1051B000F0EE480AB0EE680A2A463946FFF7B6FD17
:1051C00000982D900B982C95152806D016282BD0DA
:1051D000172875D018287AD0FEE71B99B6B2CDE90A
:1051E00002A5119833463A46CDE90061139901F0C2
:1051F0007BFF0498229A80B2CDE90A051BA8CDE96D
:10520000082890E80E00CDE9062A1598CDE9041388
:105210001E99CDE90076139BCDE90201A1B2119A46
:10522000199801F0B7FFBDE0119A2CAB13983946DD
:1052300001F037FB0998CDF8808001281998289053
:1052400040D0A0B22990049801244FF0000885B204
:1052500020981FFA8BF222990D902CABCDE90E25E8
:105260001C9A0DF1140C10931D9BCDE90BA1CDE9F7
:105270000932DDE923021B9B1E998CE80F001FFAFF
:1052800089F0159AB1B204920197CDE902101398F2
:1052900000902598119B81B2DDE92802FFF039FDCD
:1052A00020990BFB07102090119A2599289801FB53
:1052B0000200289008F10100A0428046C8D371E0A6
:1052C0003AE004E00120299005460020F4E71B9A0B
:1052D0001FFA89F9CDE902A5B3B213991198CDE966
:1052E00000923A4601F000FF04981FFA8BF1CDF8C6
:1052F00034800DF1140C80B21095CDE90E10DDE96B
:105300001C232298CDE90BA0CDE90932DDE9230267
:105310001B9B1E998CE80F00B2B2139B1599CDE927
:1053200002292598A2B20093049181B2119B199889
:10533000019700F00DFF35E01FFA89F31398B2B220
:1053400039460095FFF060FC04981FFA8BF1CDF808
:1053500034800DF1140C80B21095CDE90E10DDE90A
:105360001C232298CDE90BA0CDE90932DDE9230207
:105370001B9B1E998CE80F001598B1B21FFA89F299
:10538000CDE90320CDE901711398A2B200902598D0
:10539000119B81B2199803E0D95300080000000066
:1053A00001F096FA16980830FFF7A3FC189C024605
:1053B000DDE91610149BA0472FB0BDEC028BBDE8B1
:1053C000F08F00000349CA695206FCD5C2B28A6256
:1053D00070470000001001407047000002480021A3
:1053E00041800121018070472A000024F8B5002483
:1053F0000A46012168460094FFF7C2FB00287DD0D1
:10540000B64844F69461B54AB44B3032B34D84602B
:105410007033C460A035009800EB010CAF49103127
:10542000C1F808C0C1F80CC044F6C4414718AB49E4
:1054300020318F60CF6046F28C5101449160D16081
:10544000103200F5C0719160D160103246F2C8414F
:1054500001449160D160103243F6A0010144916093
:10546000D16045F6C80202449A60DA6045F2904283
:10547000861803F110029660D66043F638528318FE
:10548000964A90329360D36044F2D0120244AA60EC
:10549000EA60103545F230420244AA60EA6005F144
:1054A00010029160D160103230359060D06042F6C9
:1054B00070720244AA60EA60103500F61402AA6015
:1054C000EA60103500F1B002AA60EA60103500F51C
:1054D0003962AA60EA60103500F5D752AA60EA6026
:1054E000103500F54A72AA60EA60103500F5966240
:1054F000AA60EA60103500F55E6200E0EDE0AA60A7
:10550000EA60103541F630520244AA60EA60103574
:1055100000F1F002AA60EA60103500F51E72AA6080
:10552000EA60103500F69802AA60EA6005F1100200
:1055300020359060D06000F55362AA60EA601035B3
:1055400000F5B352AA60EA60103500F67452AA6002
:10555000EA60103541F21C520244AA60EA6005F18B
:1055600010029460D46005F5487446F21472024447
:10557000A260E2601034C4F808C0C4F80CC0103453
:10558000A260E26004F1100220349760D76046F216
:1055900044520244A260E260103447F2CC1202444A
:1055A000A260E26004F110029160D160103291605B
:1055B000D16043F63C311032014400F5C76591607B
:1055C000D160103200F1FC019160D16002F1100154
:1055D00070328860C86010318B60CB6010318B6096
:1055E000CB60103104F590738E60CE60103188600E
:1055F000C86010318860C86044F2686101449160FD
:10560000D160103241F6903101449160D160103286
:1056100041F6105101449160D16002F11001203235
:105620008860C86000F55F719160D16002F110017F
:1056300000F50E728860C86010318A60CA6000F59B
:105640007A719960D96003F1100120338A60CA60D1
:1056500041F2383101449960D96003F110018A6048
:10566000CA6010318860C86010318D60CD60103123
:1056700003F150028D60CD6041F288510144916088
:10568000D16002F1100130328860C860103188604A
:10569000C86000F580619160D16002F11001203294
:1056A0008860C86000F514719160D16002F110014A
:1056B00020328860C86000F2CC519160D16002F164
:1056C000100120328860C86000F5F0719160D160EF
:1056D00002F110018860C8600120F8BD441900245F
:1056E00008B500200A46012100906846FEF00CF83B
:1056F00000287DD0FE48FE49FD4A0068103240F087
:105700008040086000988860C8601031096841F0E6
:105710008041116000F1D8019160D16002F1100167
:105720001032096841F08041116000F1F801916088
:10573000D16002F110011032096841F0804111601E
:1057400000F5A0719160D16002F11001103209687A
:1057500041F08041116000F5B0719160D16002F1BB
:1057600010011032096841F08041116000F5C071EC
:105770009160D16002F110011032096841F080415E
:10578000116000F5C8719160D16002F11001103212
:10579000096841F08041116000F5EC719160D160C1
:1057A00002F110011032096841F08041116000F5EA
:1057B00008719160D16002F110010968103241F066
:1057C0008041116000F531719160D16002F11001EA
:1057D0001032096841F08041116000F54371916019
:1057E000D16002F110011032096841F0804100E0FF
:1057F00098E1116000F55E719160D16002F11001D5
:105800001032096841F08041116000F564719160C7
:10581000D16002F110011032096841F0804111603D
:1058200000F58D619160D16002F1100110320968BC
:1058300041F08041116000F59F619160D16002F1FB
:1058400010011032096841F08041116000F23C61A2
:105850009160D16002F110011032096841F080417D
:10586000116000F2CC619160D16002F11001103240
:10587000096841F08041116000F2A4719160D1602B
:1058800002F110011032096841F08041116000F20C
:10589000BC719160D16002F110011032096841F0D1
:1058A0008041116000F628019160D16002F1100181
:1058B0001032096841F08041116000F50761916084
:1058C000D16002F110011032096841F0804111608D
:1058D00000F53D619160D16002F11001103209685C
:1058E00041F08041116000F543619160D16002F1A7
:1058F00010011032096841F08041116000F6085132
:105900009160D16002F110011032096841F08041CC
:10591000116000F668519160D16002F110011032FF
:10592000096841F08041116000F628619160D16002
:1059300002F110011032096841F08041116000F657
:1059400048619160D16002F110011032096841F0A4
:105950008041116000F688719160D16002F1100100
:105960001032096841F08041116041F22801014480
:105970009160D16002F110011032096841F080415C
:10598000116041F2901101449160D16002F1100167
:105990001032096841F08041116041F23021014428
:1059A0009160D16002F110011032096841F080412C
:1059B000116041F2703101449160D16002F1100137
:1059C0001032096841F08041116041F29031014488
:1059D0009160D16002F110011032096841F08041FC
:1059E000116041F2D04101449160D16002F1100197
:1059F0001032096841F08041116041F27051014458
:105A00009160D16002F110011032096841F08041CB
:105A1000116041F2D86101449160D16002F110013E
:105A20001032096841F08041116041F278710144FF
:105A30009160D16002F110011032096841F080419B
:105A4000116041F6B80101449160D16002F110018A
:105A5000096841F080411032116041F6D8010144DB
:105A60009160D16002F110011032096841F080416B
:105A7000116041F6981101449160D16010321168B3
:105A800041F08041116041F6F81101449160D1600C
:105A90001032116841F08041116042F278110144E6
:105AA0009160D1601032116841F08041116042F282
:105AB000182101449160D1601032116841F0804199
:105AC000116000F50E519160D1601032116841F003
:105AD0008041116042F2204101449160D160103256
